:020000040800F2
:100000005009002099010008071E0008A31B0008E2
:10001000051E000879090008D5220008000000002C
:10002000000000000000000000000000371F000872
:100030007B09000800000000351F0008391F000878
:10004000B3010008B3010008B3010008B3010008C0
:10005000B3010008B3010008B3010008B3010008B0
:10006000B3010008B3010008B3010008B3010008A0
:10007000B3010008B3010008B3010008B301000890
:10008000B3010008B3010008B3010008B301000880
:10009000B3010008B3010008B3010008B301000870
:1000A000B3010008B3010008B3010008B301000860
:1000B0009D1F0008B3010008B3010008B301000848
:1000C000B3010008B3010008B3010008B301000840
:1000D000B3010008B3010008B301000815220008AD
:1000E000B3010008B3010008B301000800F002F8F2
:1000F00000F043F80AA090E8000C82448344AAF17F
:100100000107DA4501D100F038F8AFF2090EBAE87C
:100110000F0013F0010F18BFFB1A43F0010318473B
:10012000B8350000D8350000103A24BF78C878C12F
:10013000FAD8520724BF30C830C144BF04680C60ED
:10014000704700000023002400250026103A28BF35
:1001500078C1FBD8520728BF30C148BF0B60704739
:100160001FB500F06BFB04000020002102F072F9C3
:10017000401C60601FBD10B510BD00F023FB114690
:10018000FFF7EEFF02F0B8F800F04AFB03B4FFF708
:10019000F2FF03BC00F096FB09488047094800477E
:1001A000FEE7FEE7FEE7FEE7FEE7FEE7FEE7FEE727
:1001B000FEE7FEE704480549054A064B7047000084
:1001C0009B1F0008ED00000850030020500900208C
:1001D00050050020500500200FB400B58DB010A9C7
:1001E000099000910B904FF0FF300A9000200C9086
:1001F000064878440690064878446A4607900F9966
:1002000009A800F0EBF80DB05DF814FB0702000040
:100210001F0200002DE9FF5F1D464FF0FF3B914696
:100220004FF000085F46D5E90146A96901987F1C97
:100230008847296A824688470028F6D1BAF1FF3FED
:100240000CD0002E24F4C06419DD600614D5BAF178
:100250002B0F09D0BAF12D0F0ED103E0584604B090
:10026000BDE8F09F44F48064A96901987F1C884729
:10027000761E8246002E02DDBAF1300F03D0B9F1AE
:10028000000F26D032E0A969761E01987F1C44F445
:1002900000748847002E824605DDBAF1780F06D03B
:1002A000BAF1580F03D0B9F1000F10D01EE0B9F128
:1002B000000F02D0B9F1100F18D1A969761E01986C
:1002C0007F1C24F4007488478246102002E0082036
:1002D00000E00A20814609E0A96908FB0908761EAA
:1002E00001987F1C44F4007488478246002E05DD87
:1002F0004946504600F05EF80028EDDAE9690198B9
:100300008847A00502D46FF00100A8E7E00725D1D7
:10031000600613D5600502D5C8F1000000E0404634
:1003200029680A1D2A600968220501D5087015E0B0
:10033000220701D5088011E008600FE02868011D40
:1003400029600068210502D580F8008006E02107B9
:1003500002D5A0F8008001E0C0F8008038467EE7B2
:100360004FF0000200B5134694469646203922BF4E
:10037000A0E80C50A0E80C50B1F12001BFF4F7AF99
:10038000090728BFA0E80C5048BF0CC05DF804EB7B
:10039000890028BF40F8042B08BF704748BF20F8E9
:1003A000022B11F0804F18BF00F8012B70477047E7
:1003B000704770473A2800D2303820F02002412A96
:1003C00001D3A2F13700884201D34FF0FF307047CC
:1003D000026811441378016018467047D1600549DE
:1003E0007944516104497944116200211161114637
:1003F00000F02EB8EDFFFFFF53000000426842B14D
:10040000016811F8013B23B1521EC0E900121846E1
:1004100070470121C160881E704742685AB1C368A5
:10042000016843B983688B4205D0491E521CC0E95C
:100430000012002070474FF0FF30704710B504469F
:1004400000F0E6F90068005D00F0010010BD00005A
:100450002DE9F34F4FF0000A0C4656468DB00120AF
:100460000C9001F10C000B9062690B9801219047F0
:10047000051E2DD0252D2CD0216A8847C0B1626978
:100480000B9801219047216A88470028F7D16269BB
:10049000411E0B98904700E0761CA1690D98884793
:1004A000216A88470028F7D1E1690D988847DBE782
:1004B000A1690D988847A842074601D1761CD3E769
:1004C000E1690D9888477F1C02D1BAF1000F6FD007
:1004D0006BE162690B9800273D46394690472A2810
:1004E00004D162690B98012190470125DFF8D08281
:1004F00062690B9801219047A0F130010A290AD2C4
:100500004745E5DC07EB870100EB4107303FDFD4CF
:1005100045F01005ECE7E90601D46FF000476C28C0
:100520000AD04C2814D0682815D06A280DD0742819
:100530001CD07A281AD01DE062690B9801219047DF
:100540006C2802D045F0040514E045F002050DE0EA
:1005500045F020050AE062690B9801219047682860
:1005600002D045F0080505E045F4006562690B9886
:1005700001219047C4E9015765283DD019DC58286E
:100580007AD00CDC452837D004DC252826D0412839
:100590009ED131E046282FD0472899D12CE05B2806
:1005A00077D0612828D063287CD0642823D15AE0F2
:1005B000F6E06F2848D008DC66281DD067281BD0DD
:1005C000692821D06E2816D127E0702845D07328DD
:1005D00068D0752847D078280DD14DE0A1690D98D5
:1005E0008847252805463FF469AFE1690D9888479B
:1005F0006D1C3FF46AAFD8E00D9923466A466FF050
:100600000100AFF30080C5E045F0400023464FF005
:1006100000026060A80736D43EE0E8077FF447AFE9
:100620002068011D21600068290501D506701BE7BF
:10063000290701D5068017E7A90703D5F117C0E9F7
:10064000006111E706600FE745F0400023464FF0D8
:1006500008026060A80716D41EE040F60E0125EAE5
:100660000100606016E045F0400023464FF00A02AA
:100670006060A80707D40FE045F040006060A8075D
:1006800008D5234610220D996FF00100AFF30080CA
:1006900080E007E0102223460D996FF00100FFF77C
:1006A000B9FD77E04FF0000963284F46C8464B4636
:1006B000CB4602D05B2806D038E0E80601D4012002
:1006C000A060012732E06269D4F80CB00B980121D8
:1006D00090475E2807D14FF0010949466269D4F876
:1006E0000CB00B989047216939B900210A4603AB39
:1006F00043F82120491C0829FADBD8B3216949B302
:1007000008F1010862690B98012190475D28F4D136
:10071000B9F1000F09D0002003A951F82020D243DD
:1007200041F82020401C0828F7DB03AB2069002893
:1007300020794FEA40701ED05B462246CDF80080FB
:10074000CDE901970D9900286FF0010020DAAFF391
:1007500000801FE0C11703AA00EBD1614B1121F00B
:100760001F0102EB8302411A1368012088400343F2
:100770001360C7E719E00D99224600286FF00100C9
:10078000009702DAAFF3008004E0AFF3008001E0ED
:10079000AFF3008000280ADA401C06D10C9820B183
:1007A0004FF0FF300FB0BDE8F08F5046FAE7E90791
:1007B00001D10AF1010A064400200C9054E6000021
:1007C000CCCCCC0C754600F035F8AE460500694639
:1007D000534620F00700854618B020B5FFF7EAFC25
:1007E000BDE820404FF000064FF000074FF0000832
:1007F0004FF0000B21F00701AC46ACE8C009ACE8B3
:10080000C009ACE8C009ACE8C0098D4670470000DB
:1008100010B500F013F8001D10BD00BF391C00001A
:1008200010B50446AFF300802046BDE81040FFF746
:10083000ADBC000000487047EC0200200048704743
:100840000C0300204FF0013C50F8042B51F8043BFE
:100850009A4221D1A2EB0C03934313EACC1317D194
:1008600050F8042B51F8043B9A4215D1A2EB0C032B
:10087000934313EACC130BD150F8042B51F8043BEB
:100880009A4209D1A2EB0C03934313EACC13DBD0B9
:100890004FF00000704700BFD01A01BAB1FA81F1E1
:1008A00001F0180122FA01F0CB40C1F12001DBB2C6
:1008B000C0B2C01A2CFA01F3D11A914311EAC31144
:1008C000E6D1704701491820ABBEFEE726000200C2
:1008D000704700002DE9F04105461E468846104647
:1008E00002F0BEFC07460024294602F0CDFC01D2EE
:1008F000384608E0304602F0B3FC0646294602F0CE
:10090000C3FD04D23046294602F0F0FD04464046BD
:1009100002F00CFB06460D46204602F007FB064A95
:10092000064B02F07FF832462B4602F07BF8BDE81A
:10093000F04101F0A5BD0000FCA9F1D24D62503F8D
:1009400070B5064600200D464FEA000405EB840111
:10095000496845F8241002F015FB641C132CF5DBE4
:100960003146EE6402F00EFBBDE87040014902F032
:100970007DBB00000000A041FEE770472DE9F84F65
:10098000DFF8B8910024A9F1040B23460F2709F1E1
:10099000040AABF1040EC9E00125A5402A40AA4291
:1009A0007DD1674ED1F804C0ACEB0608B44532D017
:1009B00014DCBCF1030F3AD009DCBCF1000F2AD0E3
:1009C000BCF1010F1CD0BCF1020F31D11DE0BCF114
:1009D000110F17D0BCF1120F2AD119E0B8F5881FFA
:1009E00019D006DCB8F5803F15D0B8F5801F1FD1AF
:1009F00011E0B8F5001F0ED0B8F5041F18D10AE0B9
:100A0000CB6815E0CB681B1D12E0CB6808330FE004
:100A1000CB680C330CE08B682BB1012B4FF0080333
:100A200003D0456104E0042302E0056100E00023F7
:100A3000FF2A01D8064601E000F104064FEA8405CA
:100A400001D9A5F12005D6F8008007FA05FC28EAAF
:100A50000C0803FA05F548EA0508C6F800804D6859
:100A6000ED0062D5374DAE6946F00106AE61AD6965
:100A700024F0030605F001050095334D06EB050C47
:100A8000DCF80850A607360F07FA06F825EA08052D
:100A9000DFF8B880404503D14FF0000817E044E08C
:100AA000DFF8AC80404502D14FF001080FE0DFF8DD
:100AB000A480404502D14FF0020808E0DFF898809A
:100AC000404502D14FF0030801E04FF0040808FA56
:100AD00006F848EA0508CCF808804D68D9F80060A7
:100AE000ED024D4601D5164300E096432E604D6859
:100AF000DAF80060AD02554601D5164300E0964392
:100B00002E604D68DBF80060AD035D4601D51643ED
:100B100000E096432E604D68DEF80060ED037546F8
:100B200001D5164300E096432E60641C0D682A46EA
:100B3000E5407FF431AFBDE8F88F000008040140C4
:100B400000001110001002400000014000080140A8
:100B5000000C014000100140001401400AB1016185
:100B600070470904FBE700000148806870470000F7
:100B7000C0000020024881680278114481607047FB
:100B8000C0000020074810B5016841F01001016065
:100B9000032000F075F80F2000F006F800F024F8AC
:100BA000002010BD0020024070B50D4D04464FF4EA
:100BB0007A712878B1FBF0F00A490968B1FBF0F0CE
:100BC00000F0BCFA48B9102C07D200222146501E72
:100BD00000F036F800206C6070BD012070BD000090
:100BE000C0000020CC0000200C4808B5816941F00D
:100BF00001018161816901F001010091C16941F048
:100C00008051C161C06900F0805000900448416883
:100C100021F0E06141F00071416008BD0010024028
:100C200000000140002809DB00F01F020121914073
:100C30004009800000F1E020C0F80011704700007A
:100C4000F0B40E4B1B680C46C3F30223C3F1070537
:100C5000042D00D90425191D072901D2002300E025
:100C6000DB1E012606FA05F1491E214099409E40EF
:100C7000761E16403143F0BC01F02DBB0CED00E0B8
:100C8000064900F0070208684FF6FF03184040EAE3
:100C90000220034A10430860704700000CED00E09A
:100CA0000000FA052DE9F0470F46050061D0434EDC
:100CB000306800F00700B84209D2306820F0070021
:100CC00038433060306800F00700B84251D12868DE
:100CD0003B4C810712D5400703D5606840F4E060C3
:100CE00060602878000703D5606840F46050606059
:100CF0006068A96820F0F000084360602878C007A9
:100D000028D06868012810D02168022810D08907EF
:100D100000292EDA616821F0030101436160FFF7C9
:100D200023FF804641F288390DE021688903EFE70F
:100D30008901EDE7FFF718FFA0EB0801494502D94B
:100D40000320BDE8F0876068696800F00C00B0EB34
:100D5000810FEFD1306800F00700B8420BD930683E
:100D600020F0070038433060306800F00700B842D8
:100D700001D00120E5E72878400705D56068E968DB
:100D800020F4E060084360602878000706D56068BA
:100D9000296920F4605040EAC100606000F018F852
:100DA0006168084AC1F30311515CC84006490860F4
:100DB00006480068FFF7F8FE0020C2E70020024066
:100DC00000100240C8360008CC000020C4000020FB
:100DD0000E4A51680E4801F00C03042B11D0082B69
:100DE0000FD10C48C1F38343C903C05C0AD55168D5
:100DF000084AC1F34041921E515C054A5043B0FB82
:100E0000F1F0704704494843704700000010024069
:100E100000127A00B836000800093D002DE9F84FAD
:100E2000040070D02078C04DC00749D06868C0F376
:100E30008100012807D06868C0F38100022809D129
:100E40006868C00306D52868800339D56068002823
:100E5000E7D035E06068B0F5803F0BD010B1B0F559
:100E6000A02F11D0286820F480302860286820F452
:100E7000802002E0286840F480302860606890B1EB
:100E8000FFF772FE06460AE0286840F480202860DA
:100E9000F0E700BFFFF768FE801B642873D828685E
:100EA0008003F7D50CE0FFF75FFE064605E000BFC4
:100EB000FFF75AFE801B6428F0D828688003F7D417
:100EC00020789A4E80074FF001094FF0000839D57D
:100ED000686810F00C0F07D06868C0F38100022822
:100EE00009D16868C00306D42868800714D5206932
:100EF000012808D110E02069B0B1C6F80090FFF7D2
:100F000033FE074605E00AE1FFF72EFEC01B02286C
:100F1000C4D828688007F7D52868616920F0F800F0
:100F200040EAC10028600DE0C6F80080FFF71CFE13
:100F3000074604E0FFF718FEC01B022823D82868E4
:100F40008007F7D4207800072CD57948A169D9B15A
:100F5000C0F80090FFF708FE074604E0FFF704FE24
:100F6000C01B02280FD8686A8007F7D571484FF474
:100F7000FA510068B0FBF1F0009000BF0098411EEC
:100F80000091FAD20EE080E0C0F80080FFF7ECFD9F
:100F9000074604E0FFF7E8FDC01B022875D8686A21
:100FA0008007F7D42078400760D5E8690027C000A3
:100FB00008D4E86940F08050E861E869012700F052
:100FC000805000905C480168C90513D401688346CD
:100FD00041F480710160FFF7C7FD824606E000BF63
:100FE000FFF7C2FDA0EB0A0064284ED8DBF8000032
:100FF000C005F5D5E06801280AD008B1052813D04E
:10100000286A20F001002862286A20F0040002E02B
:10101000286A40F001002862E06841F2883B98B1FC
:10102000FFF7A2FD82460BE0286A40F00400286228
:10103000EEE700BFFFF798FDA0EB0A0159455AD82B
:10104000286A8007F6D50CE0FFF78EFD824605E0A2
:10105000FFF78AFDA0EB0A0159454CD8286A8007A2
:10106000F6D41FB1E86920F08050E861E06988B3E8
:101070006968C1F38101022944D00228C6F8608062
:1010800004D0FFF771FD044638E034E0FFF76CFD53
:10109000074604E0FFF768FDC01B02282BD828682C
:1010A0008001F7D4206AB0F5803F05D16868A16857
:1010B00020F4003008436860D4E9080108436968F7
:1010C00021F4741108436860C6F86090FFF74CFD86
:1010D000044606E025E000BFFFF746FD001B02289E
:1010E00009D828688001F7D51BE000BFFFF73CFD59
:1010F000001B022802D90320BDE8F88F2868800170
:10110000F4D40EE00128F7D06868226A00F4803138
:10111000914204D1616A00F47010884201D001202C
:10112000EAE70020E8E70000001002400000424229
:1011300080044242CC0000200070004010B5401EE8
:10114000B0F1807F01D3012010BD4FF0E024606139
:101150000F21601701F0BFF80020A0610720206177
:10116000002010BD7047704710B590F83C20012A50
:1011700022D0012280F83C20CA688C6822F4407298
:1011800022434C6822F4806222430C6822F40062FD
:1011900022430C6922F4805222434C6922F400520B
:1011A0002243C969002322F480420A4301684A6449
:1011B00080F83C30002010BD022010BD70B590F8C2
:1011C0003C20012A26D0012480F83C40022280F8ED
:1011D0003D2003685A689D6822F070060A68324311
:1011E0005A600D4B02689A4208D0B2F1804F05D088
:1011F0000A4B9A4202D00A4B9A4204D1496825F020
:1012000080031943916080F83D40002180F83C1034
:10121000084670BD022070BD002C01400004004053
:101220000008004010B5040003D094F83D0010B150
:1012300007E0012010BD002084F83C00204600F0AB
:101240001FF8022084F83D00211D206800F0ACFE4C
:10125000012084F8460084F83E0084F83F0084F8BA
:10126000400084F8410084F8420084F8430084F888
:10127000440084F8450084F83D00002010BD0000C3
:1012800008B50068B0F1804F12D10A48C16941F039
:101290000101C161C069002200F001000090114607
:1012A0001C20FFF7CDFCBDE808401C20FFF7BABCAE
:1012B00008BD00000010024090F83D10012901D047
:1012C00001207047022180F83D100168CA6842F091
:1012D0000102CA6000680B49884208D0B0F1804F13
:1012E00005D00949884202D00849884204D1816862
:1012F00001F00701062903D0016841F001010160F6
:1013000000207047002C014000040040000800400D
:1013100070B5044690F83C000025012817D001263E
:1013200084F83C60022084F83D002068826822F046
:10133000770222F47F4282600868502838D00DDCA2
:1013400020284FD005DC90B3102811D14AE00220AC
:1013500070BD302846D040280AD13BE060282FD00D
:1013600070280DD0B0F5805F03D0B0F5005F12D0CB
:10137000012584F83D60002084F83C00284670BDBB
:10138000CB68D1E90121206800F051FE2068816816
:1013900041F0770109E0CB68D1E90121206800F034
:1013A00046FE2068816841F480418160E1E719E0F0
:1013B000CA684968206800F0EFFE5021206806E006
:1013C000CA684968206800F0F8FE6021206800F0D3
:1013D00038FECEE7CA684968206800F0DDFE40218B
:1013E0002068F4E7226801461046F0E72DE9F04155
:1013F0000D46040003D094F83D0018B108E0012028
:10140000BDE8F081002084F83C00204600F040F860
:10141000022084F83D002068816844F2070291436D
:101420008160211D206800F0BFFD226890689169ED
:10143000166A2B68AF69034340F20330814341EAE7
:101440000721A868EF6908434FF6FC418843E96823
:1014500040EA0720014328692F6A000140EA07306B
:10146000084369686D6926F0220646EA0515294396
:1014700093602268906154F8460B0162012004F8E1
:101480001F09E0752076E0762077A0750020B7E789
:1014900010B586B0002100910191029103911B4C7F
:1014A00003681B48C0210122A34214D1C36943F041
:1014B0000203C361C36903F002030493836943F029
:1014C000040383618069009100F00400049002929B
:1014D0006946104816E0104CA34215D1C36943F089
:1014E0000403C361C36903F004030493836943F0F5
:1014F000080383618069009100F008000490029263
:1015000069460648FFF73AFA06B010BD00040040ED
:10151000001002400008014000080040000C01409B
:1015200070B590F83E60044690F83F5090F8423015
:1015300090F84320022021B104290ED0012E1BD1A6
:1015400014E0012E18D1012B16D184F83E0084F846
:10155000420001220021206820E0012D0CD1012A47
:101560000AD184F83F0084F8430014E0012D03D130
:10157000012B01D1012A01D0012070BD84F83E0069
:1015800084F83F0084F8420084F8430001220021DF
:10159000206800F03FFD01220421206800F03AFDA0
:1015A0002068016841F001010160002070BD7047B2
:1015B00070B50446006801694FF00005C94389070A
:1015C00015D4C168C943890711D4E91E01610120FE
:1015D0002077206880698007204602D0FFF7E7FF68
:1015E00004E000F0BFF8204600F064F92577206899
:1015F0000169C943490717D4C168C943490713D4CE
:101600006FF004010161022020772068806910F4E6
:10161000407F204602D0FFF7CAFF04E000F0A2F8A6
:10162000204600F047F9257720680169C94309077A
:1016300016D4C168C943090712D46FF008010161CB
:10164000042020772068C0698007204602D0FFF779
:10165000AEFF04E000F086F8204600F02BF9257775
:1016600020680169C943C90617D4C168C943C906BE
:1016700013D46FF010010161082020772068C06941
:1016800010F4407F204602D0FFF791FF04E000F005
:1016900069F8204600F00EF9257720680169C943F2
:1016A000C90708D1C168C943C90704D1891E0161AE
:1016B000204600F04FF920680169C943090609D4A2
:1016C000C168C943090605D46FF080010161204655
:1016D000FFF748FD20680169C943490609D4C1687C
:1016E000C943490605D46FF040010161204600F06E
:1016F00049FA20680169C94389060BD4C168C94306
:10170000890607D46FF0200101612046BDE87040D2
:10171000FFF729BD70BD000000B585B00021009124
:1017200001910291039100680B49884212D10B4844
:10173000816941F0040181618069694600F004001B
:1017400004904FF4407000900220019003900448F0
:10175000FFF714F905B000BD002C01400010024055
:1017600000080140704770B5044690F83C00002620
:101770000D4601280FD0012084F83C006AB1042AEC
:101780001DD0082A2FD00C2A3FD00126002084F833
:101790003C00304670BD022070BD206800F05AFC4D
:1017A0002068816941F0080181612068816921F028
:1017B00004018161206881692A69114311E0206870
:1017C00000F070FC2068816941F40061816120684B
:1017D000816921F480618161206881692A6941EA17
:1017E00002218161D2E7206800F088FC2068C1698D
:1017F00041F00801C1612068C16921F00401C161A3
:101800002068C1692A69114311E0206800F0A2FC38
:101810002068C16941F40061C1612068C16921F497
:101820008061C1612068C1692A6941EA0221C16100
:10183000ACE710B5040003D094F83D0010B107E008
:10184000012010BD002084F83C00204600F01EF866
:10185000022084F83D00211D206800F0A5FB012036
:1018600084F8460084F83E0084F83F0084F8400085
:1018700084F8410084F8420084F8430084F844006E
:1018800084F8450084F83D00002010BD08B50068CC
:101890000649884208D10648816941F400618161A6
:1018A000806900F40060009008BD0000002C014039
:1018B000001002407047000010B50446022249B1F2
:1018C00004290ED0082913D094F84100012816D01D
:1018D000012010BD94F83E000128F9D184F83E2083
:1018E0000FE094F83F000128F2D184F83F2008E08F
:1018F00094F840000128EBD184F8402001E084F8FE
:1019000041200122206800F085FB0F4920688842B1
:1019100003D1426C42F4004242642068884208D0FD
:10192000B0F1804F05D00949884202D00849884269
:1019300004D1816801F00701062903D0016841F054
:1019400001010160002010BD002C01400004004096
:10195000000800402DE9F05F0068B0F1804F7CD1B5
:101960007D4C606C7D4D4FF0FF3BA84207D3606C0F
:1019700080F000402064E063584600F0F1FC606CA9
:10198000A84205D2606C2064E063012000F0E8FC0E
:1019900073480168486A6062A26A801A00D54042B2
:1019A0006063CA6AB0EB520F02D3C96A081A606357
:1019B000C0EB0010800000F0CEFF6A4E6A4F324646
:1019C0003B4600F043FE00F05BFDE0616449E069E6
:1019D000D831FEF7B5FF01F0A9FA5F4D8035A86355
:1019E000E9635F4848300168486AE062226B801A08
:1019F00000D54042A063CA6AB0EB520F02D3C96A55
:101A0000081AA063C0EB0010800000F0A4FF32466B
:101A10003B4600F01BFE00F033FD20625349206A74
:101A2000FEF78EFF01F082FA28636963286B696B09
:101A300000F026FD0146E06B00F0E6F901F076FAD1
:101A4000C5E90801A86BE96B00F01AFD0146206C9E
:101A500000F026FA01F06AFA00E07AE0C5E90A012E
:101A6000D5E9080100F00CFD414F40F2E7360023B4
:101A700032463946FEF72EFF01F058FAD5E9082321
:101A800000F030FD00F03AFF2080D5E90A0100F0B7
:101A9000F7FC002332463946FEF71CFF01F046FAF8
:101AA000D5E90A2300F01EFD00F028FF86B266800B
:101AB000208800F067FF00F083FC00F0E1FCA860E4
:101AC000304600F05FFF00F07BFC00F0D9FC60675F
:101AD000606F01F08DFB224E903E31684863A8682C
:101AE00001F086FB31688863606AA0624FF4667615
:101AF000B0FBF6F0E56A4000256300F043FF1D4FA0
:101B0000DFF874803A46434600F08CFFDFF86C90B3
:101B1000DFF86CA04A46534600F084FF00F0B0FCAA
:101B2000E064B5FBF6F0400000F02CFF3A46434677
:101B300000F078FF4A46534600F074FF00F0A0FC26
:101B40002065216DE06C01F01DFA594601F075FD2C
:101B5000A064BDE8F09F000000000020000080802D
:101B600060010020713D0AD7A3700D40880200205B
:101B70008195E33F1F85EB51B81E09409A999999C9
:101B80009999A93F704790F84230202B01D002204C
:101B9000704721B11AB10023036300F020BB01207C
:101BA0007047FEE730B585B00024184800940194D2
:101BB00002940394816941F020018161816901F0FF
:101BC00020010491816941F004018161816901F082
:101BD00004010491816941F00801816180690C4D23
:101BE00000F00800049000221E212846FEF7B6FFF0
:101BF0001E2000900120CDE90104022003906946D7
:101C00002846FEF7BBFE05B030BD000000100240C4
:101C10000008014010B592B000240F941C216846C2
:101C20001094FEF79DFB202107A8FEF799FB24489E
:101C3000224901600321C0E9011440F2E731C0E903
:101C4000031444618461FFF7F4FD08B172B6FEE746
:101C50000F940FA91A481094FFF7B0FA08B172B6A2
:101C6000FEE76020CDE900040294039404940594F7
:101C70000022694612480694FFF775FD08B172B656
:101C8000FEE7042269460E48FFF76DFD08B172B603
:101C9000FEE70794089409944FF400500A94CDE9A4
:101CA0000B4007A906480E94FFF75EFA08B172B61A
:101CB000FEE70348FFF730FD12B010BD002C0140D5
:101CC000D000002010B586B000241648009401947E
:101CD0000294039404944FF08041059401604721DD
:101CE000C0E9011440F2E731C0E903148461FFF751
:101CF00099FA08B172B6FEE74FF480500090694639
:101D00000848FFF705FB08B172B6FEE7049404A982
:101D100004480594FFF752FA002801D072B6FEE796
:101D200006B010BD1801002010B58CB02421684603
:101D3000FEF716FB00241648099414490A94C0E9DA
:101D400000144FF47071C0E9024180210461816187
:101D50000320CDE900040120CDE902040494CDE97B
:101D60000540079469460A480894FFF73FFB08B10D
:101D700072B6FEE7099409A905480A94FFF71EFA0E
:101D8000002801D072B6FEE70CB010BD0004004080
:101D90006001002010B58CB024216846FEF7E0FAFF
:101DA00000241748099415490A94C0E900144FF417
:101DB0007071C0E9024180210461816103200090BB
:101DC00001AA0220012182E81300CDE90440CDE9F7
:101DD000061469460A480894FFF708FB08B172B672
:101DE000FEE7099409A906480A94FFF7E7F90028D5
:101DF00001D072B6FEE70CB010BD00000008004034
:101E0000A8010020FEE7FEE72DE9F04701F06EFB98
:101E1000204CA065A16D206901F06AFAA067A16D50
:101E2000606901F065FA01F081F8DFF86C80DFF895
:101E30006C9042464B4600F0F5FD04F180050646E5
:101E40000F46686801F072F832463B4600F04AFBE4
:101E500000F016FBE067216EA06D01F047FBA16961
:101E600001F046FA01F062F842464B4600F0EEFB04
:101E700000F006FB2860E16FA06F01F083F829688D
:101E800001F080F8A860E06F6860A06D2066A86827
:101E9000BDE8F08700000020FCA9F1D24D62503F60
:101EA0002DE9F04101F022FB1F4C6065616D606817
:101EB00001F01EFA6066616DA06801F019FA01F088
:101EC00035F81A4EDFF868803246434600F0AAFD26
:101ED00005460F46206F01F029F82A463B4600F0E0
:101EE00001FB00F0CDFAA066E16D606D01F0FEFA35
:101EF000E16801F0FDF901F019F83246434600F0BF
:101F0000A5FB00F0BDFAE066A16E606E01F03AF844
:101F1000E16E01F037F86067A06E2067606DE065E4
:101F2000606FBDE8F081000000000020FCA9F1D244
:101F30004D62503F70477047FEF71CBE30B58FB002
:101F400028216846FEF70CFA14210AA8FEF708FAC1
:101F500001210804CDE90010002402940225049117
:101F6000CDE907504FF4E01009906846FEF756FFA0
:101F700008B172B6FEE70F20CDE90A054FF4806084
:101F8000CDE90C4002210AA80E94FEF78BFE002832
:101F900001D072B6FEE70FB030BD70470148FFF7C1
:101FA00007BB000018010020F0B50268164B174C63
:101FB000174D4FF08047984205D0B84203D0A04259
:101FC00001D0A84203D122F070064A6832439842F9
:101FD00005D0B84203D0A04201D0A84203D122F4D8
:101FE0004074CA6822434C6922F080022243026096
:101FF0008A68C2620A688262984201D109690163F3
:1020000001214161F0BD0000002C014000040040AE
:102010000008004010B501F01F030121046A994037
:102020008C430462016A9A401143016210BD10B5ED
:10203000846842EA032224F47F440A4322438260F4
:1020400010BD826822F070020A4342F007018160ED
:102050007047000030B5036A026A22F00102026292
:102060004268846924F073050C682C4323F0020550
:102070008B682B430A4DA8420BD123F00805CB688F
:1020800022F440722B434D6923F0040315438A69FF
:102090002A434260846149684163036230BD0000A5
:1020A000002C014030B5026A036A23F0100303627A
:1020B000436884690D6824F4E64444EA05248D6885
:1020C00022F0200242EA05120B4DA8420ED1CD6843
:1020D00022F0800242EA05124D6923F4406343EA8C
:1020E00085038D6922F0400243EA850343608461E1
:1020F00049688163026230BD002C014030B5036A3B
:10210000026A22F4807202624268C46923F4007396
:1021100024F073050C682C438D6843EA05230C4DAD
:10212000A8420ED1CD6823F4006343EA05234D692C
:1021300022F4405242EA05128D6923F4806342EA98
:1021400005124260C4614968C163036230BD00008A
:10215000002C014030B5046A026A22F48052026207
:102160004268C3690D6823F4E64343EA05238D689A
:1021700024F4005444EA0534064DA84204D14D69C4
:1021800022F4804242EA85124260C36149680164D8
:10219000046230BD002C014010B5036A046A24F0CB
:1021A00001040462846924F0F00444EA021423F078
:1021B0000A020A438461026210BD10B5036A046A10
:1021C00024F010040462846923F0A00324F4704412
:1021D00044EA023243EA01118261016210BD816268
:1021E0008285C28500214164222180F84210016964
:1021F00021B10168CA6842F48072CA6001684A6904
:1022000042F001024A610068C16841F02001C160EA
:102210000020704710B51148006880060CD50F48A3
:10222000001D01680E4C252907D0016820690D4A60
:102230000244401C2061117010BD206960610020C3
:102240002061074A08A10C320648FDF7C5FFE06887
:1022500000F0EEFF02498039486410BD004800409C
:1022600080000020D80200205B25645D0000000093
:102270000448016841F02001016003498020C1F851
:10228000000170470C48004004E000E00E48C169BE
:1022900041F48021C161816941F0080181610B48ED
:1022A000016841F496410160016821F48061016098
:1022B000074940F6A6600860081D016842F20C025A
:1022C000114301607047000000100240040C0140FF
:1022D00008480040FEE70907090E002804DB00F16A
:1022E000E02080F80014704700F00F0000F1E020BB
:1022F00080F8141D70470000FEF744FCFFF71EFE37
:10230000FFF750FCFFF786FCFFF7DCFCFFF70CFD46
:10231000FFF740FDFFF7BAFFFFF7AAFF0E48FEF7F1
:10232000CBFF0D4800214838FFF7C6FA0A480421C0
:102330004838FFF7C1FA084804214830FFF7F0F8A1
:10234000054804219030FFF7EBF8034807220349C2
:10235000D830FFF718FCFEE7180100209800002095
:1023600010B5164C012817D0401C26D1002202219E
:102370002046FEF7F3FB012204212046FEF7EEFB88
:10238000012208212046FEF7E9FB00222046BDE895
:1023900010401021FEF7E2BB012202212046FEF789
:1023A000DDFB002204212046FEF7D8FB0022082195
:1023B0002046FEF7D3FB0122E8E710BD00080140EC
:1023C0002DE9F04D07460E4600F060FC04460D4630
:1023D0003A46334600F0B4FCDFF86CA0DFF86CB08E
:1023E0001B4B0746884616F0004F4FF000020AD0FC
:1023F00000F0DCFA0AD900225B463846414600F07C
:102400000FFC1BD212E000F0D1FA08D20022534692
:102410002046294600F0A0FC04460D460EE00022AE
:102420005B463846414600F0FBFB07D80022534686
:102430002046294600F056F804460D46314620460F
:1024400065F31E01BDE8F08D0000F03F0000E03FA5
:102450000000E0BF10B500290AD00878002807D096
:1024600005487844FEF7EEF9002801D0002010BDA1
:102470000248784410BD0000961200008E12000041
:1024800021F00042A2F16052B2F5801F01F000433A
:1024900028BFD2F17F6C0BD95FEA001C43EAC2026D
:1024A00042EB507018BF704728BF20F00100704702
:1024B000B2F5801FBCBF184670474FEA410C1CF5AF
:1024C000001F02D2084600F0DABF70B500F054FBDE
:1024D00000000089FFF7F6BF4FF00040A0F5800034
:1024E0007047000010B591EA030F48BF83F0004326
:1024F00000F13A84841A71EB030C05D2121943EBF4
:102500000C03001B61EB0C01DFF824E14FEA1154CE
:10251000A4EB135C1EEA430F18BF9EEA445F73D01E
:1025200023EA0E03DCF1200E21EA045143F4801368
:1025300032D322FA0CFE10EB0E0023FA0CFE41EB14
:102540000E01CCF1200E03FA0EFE10EB0E0051F13D
:102550000001B1F5801FCCF1200E32D201EB045105
:1025600012FA0EF2BDE8104058BF7047401C38BF49
:102570005FEA420218BF7047002814BF20F0010034
:1025800041F100014FEA410313F5001F38BF7047C6
:10259000A1F1C04100F03EBB012A43EB0302ACF1C4
:1025A000200CDCF11F0E32BF4FF0000E23FA0CF3AB
:1025B00010EB030041EB0451B4EB115FD0D0A1EB61
:1025C000045101F5801149085FEA300001EB045124
:1025D0000ED350F1000038BF12FA0EFE08D1BDE84C
:1025E0001040C9E7401C38BF5FEA4202CAD1C3E7C6
:1025F000BDE810404FEA410313F5001F38BF704794
:10260000A1F1C04100F006BB9EEA445F08D011EA88
:102610005E0FBDE8104004BF01F00041002070478C
:10262000BDE8104070B500F0A7FA00BF64FBBE3EE5
:102630000000E0FF491058BFC1F140415B1058BF96
:10264000C3F140438B42EFF3008070472DE9C04156
:1026500030B4DFF8A0C23CEA111418BF3CEA1314EE
:1026600000F0EC8081EA03051CEA111444EAD574F9
:1026700018BF1CEA131500F0C780A4EB05044FF047
:10268000004545EAC12145EAC32341EA505143EAE6
:10269000525304F17F74994204F500344FEAC0208C
:1026A0004FEAC22208BF904200F09C804FEA1365B7
:1026B0000FF24016765D4FEA134506FB05F7C7F1AA
:1026C000807706FB07F74FEAD737A7FB0368764208
:1026D000C8F58038A7FB06CE38BFA8F1010807FB74
:1026E00008E64FF0000EA6FB028CE6FB03CEDCF101
:1026F000000CCEF1004E38BFAEF1010EA6FB0C5817
:102700004FF000074FF00005E6FB0E87A1FB08C65F
:10271000A0FB07CE16EB0E0645F10005E1FB0765B1
:1027200015F1E04E7EBFA4F580345FEA46066D41A8
:1027300016F1800745F100054FEA17274FEA0666B4
:1027400047EA0567A6F1DE46B6F1805F4FEA152538
:102750001FD9384624F0010C05EBC471BCF1FE6FA3
:1027600001EB0C1102D8F0BCBDE8008124425CBF33
:1027700001F5801E9EEAC47F02D4F0BCBDE8008152
:10278000244238D4F0BCA1F1C041BDE8004100F0C2
:1027900041BA4FEAD22242EA43524FEAD323A7FB7F
:1027A00002864FEAD02040EA415007FB03661EEA4A
:1027B0000E0F4FEAD12105FB026658BFA6EB00566B
:1027C000B6EB00564FEA520E4EEAC37E18EB0E0EE1
:1027D00056EB530EBDD518EB02085E417F1C55F138
:1027E0000005B6E74FF480154FF000074FF00006E4
:1027F0004FF00008ADE7F0BC4FF0000001F1C04120
:1028000001F00041BDE8008111EA0C1F0CEA13152C
:1028100000D00CE013EA0C1F00F025804FF0000000
:10282000F0BC81EA030101F00041BDE80081F0BC89
:10283000BDE8004181EA030100F0ECB9F0BCBDE85D
:10284000004170B500F098F9097EFC3E00F007B831
:1028500081EA03014FF0000001F00041704781EA76
:10286000030100F0D7B9F0BCBDE800414FF0000013
:1028700021497047FFFDFBF9F7F5F4F2F0EEEDEBBF
:10288000E9E8E6E4E3E1E0DEDDDBDAD8D7D5D4D36E
:10289000D1D0CFCDCCCBCAC8C7C6C5C4C2C1C0BFBA
:1028A000BEBDBCBBBAB9B8B7B6B5B4B3B2B1B0AFC0
:1028B000AEADACABAAA9A8A8A7A6A5A4A3A3A2A1A4
:1028C000A09F9F9E9D9C9C9B9A999998979796955F
:1028D00095949393929191908F8F8E8E8D8C8C8BFB
:1028E0008B8A898988888787868585848483838283
:1028F000828181800000FF070000F87F4FEA1153BA
:10290000A3F58063D3F11E03A8BFD3F1200C08DB2D
:102910004FF0004242EAC12252EA505232FA03F02A
:10292000704709420BD4102BC4BF0020704703F539
:10293000787CBCF1FF3F05D04FF0FF3070474FF07F
:102940000000704770B500F017F900BF499224806D
:1029500000207047F0E710F0004248BF4042B0FA54
:1029600080F310FA03F10AD0C3F11D0303F580636D
:102970004FEA415002EB035202EBD12170474FF076
:1029800000007047B0FA80F310FA03F10AD0C3F1E7
:102990001D0303F580634FEA41504FEA035202EBF7
:1029A000D12170474FF000007047000051EA030C3E
:1029B00017D41CF5801F58BFBCF5801F00F106809E
:1029C000994218BF704708BF9042704707D711F56A
:1029D000801F58BF13F5801F19D499427047894250
:1029E00070471CF5801F08D5BCF5801FF7D58B42BA
:1029F00018BF704708BF824270474FF4001C1CEBA1
:102A0000410F38BF1CEB430F01D28B42704770B5AA
:102A100000F0B2F8922449004FF000514FF080537B
:102A2000FFF708BEDFF848C170B51CEA111E1EBFD3
:102A30001CEA13159EEA0C0F95EA0C0F00F06F804C
:102A400081EA030423EA4C134EEAD47E21EA4C11B6
:102A500041F4801143F48013AE44A1FB024CA0FB6F
:102A60000365AEF17F7E361955EB0C05A1FB034CD7
:102A70004CF10003A0FB021C16EB0C06654153F160
:102A80000003094218BF46F0010613F4007F0BD182
:102A90004FEA03314FEA0530340341EA155140EA69
:102AA00016506FF003020AE04FEAC3214FEAC52037
:102AB000F40241EA555140EA56506FF0020202EB2F
:102AC0002E4201EB025585EACE710AD05FEA440C32
:102AD00018BF24F0004450F1000041F1000120EA49
:102AE000D47040F2FE7C624500D270BDA84214BF93
:102AF0004FF080444FF04044002E08BF0024BEF148
:102B0000806FA8BFA1F1C041BDE8704080F2828013
:102B10004FF0000001F1C04101F0004170479EEA12
:102B20000C0F0CEA131518BF95EA0C0F06D04FF0E6
:102B3000000081EA030E0EF0004170BD00F01CF8A9
:102B40008900013E00F007B800F009B84FEA430CD5
:102B50005FEA5C5C08D081EA030100F05BB84FEAF1
:102B6000410C5FEA5C5CF6D14FF000000149704710
:102B70000000FF070000F87F0EF1020E2EF0030E9A
:102B80005EF8046B364205D4012A43EB030515F5C4
:102B9000001F12D8012841EB010C1CF5001F0CD8B6
:102BA0000ED14FEAD17C15F5001F0CEB4C0C0CF14B
:102BB000020C08BF4CEBD37C04E04FF0080C01E0A2
:102BC0004FEAD37C0CEB4C0526FA05F606F0070617
:102BD000B6F1040C06D20EEB860CBDE870404CF04A
:102BE000010C6047DFE80CF0090B02024FF00041D6
:102BF0004FF00000A1F5002170BD194610460128D4
:102C000051EB010418BFD4F5001484BF002001F07B
:102C1000004170BD0808A0F500114FEA310170476E
:102C200053EA010C17D41CF5801F58BFBCF5801F58
:102C300000F106808B4218BF704708BF8242704780
:102C400007D713F5801F58BF11F5801F19D48B4289
:102C500070479B4270471CF5801F08D5BCF5801F4C
:102C6000F7D5994218BF704708BF904270474FF49C
:102C7000001C1CEB430F38BF1CEB410F01D29942E3
:102C800070470FB40CBC03BCFFF7C1BE5FEA410C38
:102C90005FEA5C5CACF580635B1C39D4D3F1340231
:102CA00040F34580B2F1200314DA4FF0010C0CFA26
:102CB00002FCACF101030340B3EB5C0220EA030029
:102CC00008BF10EA0C0F98BF704710EB0C0041F1E1
:102CD000000170470AD0C3F1200201FA02FC01286A
:102CE00021FA03F101FA03F14CF100004FF0010C5D
:102CF0000CFA03FCACF10103B0F1004F21EA03012F
:102D000008BF11EA0C0F4FF0000088BF6144704704
:102D1000B3F1FF3F28BF50EAC12C01F000414FF052
:102D2000000084BF41F07C5141F470017047B3F55D
:102D3000806FB8BF704770B5FFF71EFF40DBB6BEAF
:102D400091EA030F10B581F000413FF5D3AB83F05A
:102D5000004300F009B8000010B591EA030F48BF26
:102D600083F000433FF5C6AB841A71EB030C07D226
:102D700012198CF0004C43EB0C03001B61EB0C01AF
:102D8000DFF8A4E14FEA1154A4EB135C1EEA430FF1
:102D900018BF9EEA445F00F0B08023EA6E035242FF
:102DA00021EA0451C3EB6E0338BF5B1EDCF1200E39
:102DB00025D322FA0CFE10EB0E0043FA0CFE41EB79
:102DC0000E01CCF1200E03FA0EFE10EB0E0051F1B5
:102DD0000001CCF1200E29D412FA0EF201EB0451BD
:102DE000BDE8104058BF7047401C1CBFB2F1004FF7
:102DF000704700280CBF491C20F00100704712EBFF
:102E0000020E43EB030218BF4FF0010E4EEA4202DE
:102E1000ACF1200CDCF11E0E54D943FA0CFE10EB81
:102E20000E0051F1FF31CCF11E0ED5D50EF1010E81
:102E300012FA0EFE404141EB010101EB445C5FEAF6
:102E40005C5C10D910EBDE7001EB045138BFBEF1B1
:102E5000004FBDE8104018BF704700280CBF491C48
:102E600020F00100704730D24FEAD42C11F5001148
:102E700024F400641BD0B1FA81F20B3AA41AA41E08
:102E8000D2F12003914030FA03F31943904001EB53
:102E9000CC71002C01EB0451BDE81040A8BF704775
:102EA00001F1C0414FF0000001F000417047B0FA5D
:102EB00080F310FA03F100D110BDE41A173C480565
:102EC000C90AE4E701EB045110BD491001EB0451BC
:102ED000BDE810404FEA300002E04FF000017047BB
:102EE0004A0008BF0042F8D0B2F5001F28BF704763
:102EF00001F000414FF0000070479EEA445F07D0A8
:102F000011EA5E0FBDE8104004BF002100207047A9
:102F1000BDE8104070B5FFF72FFE00BF40DFF63E62
:102F200083F00041104670470000E0FF43004FEA85
:102F3000D30C4FEA3C0C43401FBF40070CF16051DB
:102F400013F0FE4F70471CF0006F03D100200CF00F
:102F5000004170470CF0004343EA507010B540EA5E
:102F6000CC0000F046FA00BF000000924FEA0001DA
:102F7000FFF750BE4FF000414FF00000A1F50021D7
:102F80007047000090EA010F48BF81F0004100F156
:102F9000B482421A3CBF801A89184FEAD0524FF0CF
:102FA0007F4C1CEA410FA2EBD15318BF9CEA026F81
:102FB00000F03B804FF0004C4CEA00204CEA01212D
:102FC00021FA03FC10EB0C0C1ED202F1FF325FEA77
:102FD0001C2040EBC25038BF70471CF07F0F4FEAF7
:102FE000400C18BFBCF17F4F38BF7047C3F12003BE
:102FF000994008BF20F00100BCF17F4F38BF7047F7
:10300000A0F1C04000F03BBA4FEA3C00000A40EBA0
:10301000C25028BF1CF0FF0F4FEA400CE6D018BF8B
:10302000BCF17F4F38BF7047EAE79CEA026F05D0DA
:1030300010EA5C0F08BF00F00040704710B500F0C8
:10304000D8F900BF64FBBE3E014800F0C4BA00BF1F
:103050000000C07F401058BFC0F14040491058BF29
:10306000C1F140418142EFF3008070474FF47F0C83
:103070001CEAD0121EBF1CEAD11392EA0C0F93EA8D
:103080000C0F00F0858090EA010F48BF42F4807277
:1030900040F4000C41F400002CF07F4120F07F4010
:1030A00000B58142A2EB03020FF2081CACEB504EBC
:1030B000C0F100009EF800E04FEA4E0E00FB0EFC4F
:1030C00038BF49004FEA2C1C02F5FA020CFB0EF344
:1030D0004FEACE1E4FEA112C4FEAC1210EEB635E80
:1030E00042EB22420EFB0CFC4FEA1C5300FB031187
:1030F0004FEA112C4FEA01310EFB0CFC4FEADC4C7D
:1031000000FB0C11C14228BF09184CEB03335DF8DA
:1031100004EB10EB410143EBC250B2F57C0F38BF1A
:10312000704729D512F0F00F1CBF00F1C04000F02D
:1031300000407047008182838485868788898B8CD4
:103140008D8E8F919293959697999A9C9D9FA0A210
:10315000A3A5A7A8AAACAEB0B2B3B5B7B9BCBEC060
:10316000C2C5C7C9CCCED1D4D7D9DCDFE2E6E9EC01
:10317000F0F3F7FAFE0000004FEA400C0CF1807CFF
:10318000BCF17E4F28BF7047B0F1C04000F077B966
:1031900090EA010F0CEAD11348BF42F480726245F5
:1031A00038BF634507D213F47F0F16D080EA0100C1
:1031B00000F00040704710B500F01BF9097EFC3E9E
:1031C00000F005B880EA010000F00040704780EA96
:1031D000010000F0004000F052B912F47F0F04BF6C
:1031E0000248704780EA010000F049B90000C07F42
:1031F000C10DD1F19E0206DB4FEA002343F00043EC
:1032000023FA02F07047004207D54FEA4001B1F1BE
:10321000FE4F02D24FF00000704710B500F0E9F801
:1032200049922480002070476FEA20007047000018
:1032300010F0004148BF4042B0FA80F310FA03F2A8
:10324000C3F19D030BD051EAC35101EB1220530689
:1032500038BF704700F1010008BF20F0010070473F
:10326000B0FA80F310FA03F2C3F19D030AD0D90536
:1032700001EB1220530638BF704700F1010008BF70
:1032800020F001007047000050EA010C00F11380AB
:103290001CF5000F58BFBCF5000F01D488427047E1
:1032A00007D710F5000F58BF11F5000F15D488424D
:1032B0007047894270471CF5000F04D5BCF5000F1C
:1032C000F7D5814270474FF0807C1CEB400F38BF30
:1032D0001CEB410F01D28142704710B500F089F814
:1032E000922449004FF000504FF08051FFF7B2BEDA
:1032F0004FF47F0C1CEAD0121EBF1CEAD11392EAD5
:103300000C0F93EA0C0F00F0478090EA010F48BFC2
:1033100042F480724FF0004C4CEA00204CEA01214C
:1033200002EB0302A0FB0113A2F50002002918BF63
:1033300043F001035B0028BF4FEA330342EB224214
:103340005FEA132C4CEBC2502EBFBCEB436FB2F5BF
:103350007C0F70474FEA036CBCF1004F08BF20F0B0
:103360000100B2F57C0F38BF70470BD582F0FF0229
:1033700012F5803FC8BF704700F1C040D8BF00F0D1
:103380000040704700F5000C5FEA4C0C48BF7047E6
:10339000B0F1C04000F073B890EA010F0CEAD1130D
:1033A00048BF42F48072624538BF634504D280EA68
:1033B000010000F00040704710B500F01AF800BF9F
:1033C0008900013E00F007B800F009B85FEA410C3F
:1033D0005FEA1C6C08D080EA010000F050B85FEA98
:1033E000400C5FEA1C6CF6D14FF00040A0F5800065
:1033F00070470EF1020E2EF0030E5EF8044B2442CD
:1034000004D44FEA4102B2F17F4F11D84FEA400392
:10341000B3F17F4F0CD80ED14FEAD07CB2F17F4F81
:103420000CEB4C0C0CF1020C08BF4CEBD17C04E013
:103430004FF0080C01E04FEAD17C0CEB4C0324FA6E
:1034400003F404F00704B4F1040C06D20EEB840C70
:10345000BDE810404CF0010C6047DFE80CF00708B5
:1034600002024FF00040A0F5800010BD0846420067
:1034700018BFD2F1807288BF00F0004010BDFF215C
:1034800041EAD050C005704751EA000C00F11380AA
:103490001CF5000F58BFBCF5000F01D481427047E6
:1034A00007D711F5000F58BF10F5000F15D4814252
:1034B0007047894270471CF5000F04D5BCF5000F1A
:1034C000F7D5884270474FF0807C1CEB410F38BF26
:1034D0001CEB400F01D28842704780EA010081EA6C
:1034E000000180EA0100FFF7F8BE000090EA010F3A
:1034F00048BF81F000413FF54CAD421A04D882F03C
:103500000042A0EB020011444FEAD0524FF07F4C32
:103510001CEA410FA2EBD15318BF9CEA026F4AD0BC
:103520004FF0004C4CEA00204CEA012121FA03FC48
:10353000B0EB0C0C0FD412F0FE0F36D05FEA4C004B
:103540001DD5001240EBC25038BF70471CF03F0F32
:1035500018BF70470BE0A2F101025FEA1C2040EBAC
:10356000C25038BF70471CF07F0F18BF7047C3F1BF
:103570002003994014BF401E20F0010070478008CE
:103580004FEA122308BF7047B0FA80FCA2EB0C028E
:10359000CCF1280C60FA0CF093EA122F04BF00EB78
:1035A000C25070474FEAC3707047130A5FEADC10DD
:1035B00008BF7047F6E79CEA026F04D010EA5C0F80
:1035C00008BF0020704710B5FFF713FF40DFF63E3D
:1035D00081F0004070470CF00F03092B08BF082052
:1035E00000F051800A2B0BD0082B18BF704708BF82
:1035F0001CF0400F0AD04FF000004FF00001704760
:103600001CF0400F18BF4FF0004070471CF0100F27
:1036100008D020F0704300F07F4242EAD3014FEA25
:103620004370704700F0604021F07F4242EA0002A0
:1036300001F07F4040EA727070474FF0FF0212EADB
:10364000D0521CBF92F0FF038B42C2BFD14200EBAD
:10365000C1507047002A0AD0002B0BD0002900F07F
:103660000040A4BF40F0FE4040F40000704700F06E
:103670000040704743024FF00B0C18BF4CF0806CB9
:103680007FF4E2AC70471CF4801F11D01CF4E02FD3
:1036900003D06FEACC31490070474FF04050EFF350
:1036A000008222F0704242EA000282F300887047F2
:1036B0004FF00000704701020203040506070809E5
:1036C0000A0B0C0D0E0F101000000000000000008F
:1036D000010203040607080908380008000000205A
:1036E000D000000028010008D8380008D0000020D1
:1036F00080080000440100081001000043000000A1
:10370000F8FFFFFF00404040404040404040414102
:1037100041414140404040404040404040404040A6
:103720004040404040050202020202020202020240
:10373000020202020220202020202020202020023D
:1037400002020202020290909090909010101010CD
:103750001010101010101010101010101010101069
:1037600002020202020288888888888808080808FD
:1037700008080808080808080808080808080808C9
:1037800002020202400000000000000000000000F1
:103790000000000000000000000000000000000029
:1037A0000000000000000000000000000000000019
:1037B0000000000000000000000000000000000009
:1037C00000000000000000000000000000000000F9
:1037D00000000000000000000000000000000000E9
:1037E00000000000000000000000000000000000D9
:1037F00000000000000000000000000000000000C9
:103800000000000000000000000000000000204157
:10381000000048426F12033A000020410000484275
:103820006F12033A000000000000000000000000DA
:103830000000000000000000000000000000000088
:103840000000000000000000000000000000000078
:103850000000000000000000000000000000000068
:103860000000000000000000000000000000000058
:103870000000000000000000000000000000000048
:103880000000000000000000000000000000000038
:103890000000000000000000000000000000000028
:1038A0000000000000000000000000000000000018
:1038B0000000000000000000000000000000000008
:1038C00000000000000000000100000010000000E7
:0838D000000000000024F400D8
:04000005080000ED02
:00000001FF
